:100000000C9462000C948A000C948A000C948A0070
:100010000C948A000C948A000C948A000C948A0038
:100020000C948A000C948A000C948A000C948A0028
:100030000C948A000C948A000C948A000C948A0018
:100040000C9498020C948A000C9408030C94E2021D
:100050000C948A000C948A000C948A000C948A00F8
:100060000C948A000C948A000000000024002700F1
:100070002A000000000023002600290000000000E4
:10008000250028002B0004040404040404040202D4
:100090000202020203030303030301020408102007
:1000A0004080010204081020010204081020000012
:1000B0000008000201000003040700000000000027
:1000C00000007F0311241FBECFEFD8E0DEBFCDBFFD
:1000D00011E0A0E0B1E0E0ECFEE002C005900D927E
:1000E000A632B107D9F721E0A6E2B1E001C01D9226
:1000F000A03DB207E1F710E0C2E6D0E004C02197CE
:10010000FE010E948E05C136D107C9F70E94B003D7
:100110000C945E070C94000090E0FC01E255FF4F48
:100120002491FC01E656FF4F3491FC01EA57FF4F42
:10013000E491EE23C9F0222339F0233001F1A8F431
:10014000213019F1223029F1F0E0EE0FFF1FE458C1
:10015000FF4FA591B4918FB7F894EC91611126C02F
:1001600030953E233C938FBF08952730A9F0283067
:10017000C9F0243049F7809180008F7D03C08091C1
:1001800080008F7780938000DFCF84B58F7784BD28
:10019000DBCF84B58F7DFBCF8091B0008F778093CC
:1001A000B000D2CF8091B0008F7DF9CF3E2BDACF57
:1001B0003FB7F89480912D0190912E01A0912F01CD
:1001C000B091300126B5A89B05C02F3F19F00196CC
:1001D000A11DB11D3FBFBA2FA92F982F8827BC01A1
:1001E000CD01620F711D811D911D42E0660F771FC9
:1001F000881F991F4A95D1F708958F929F92AF92C9
:10020000BF92CF92DF92EF92FF926B017C010E942E
:10021000D8004B015C01C114D104E104F104B9F030
:100220000E94D800681979098A099B09683E7340C1
:100230008105910580F321E0C21AD108E108F10897
:1002400088EE880E83E0981EA11CB11CE4CFFF90BD
:10025000EF90DF90CF90BF90AF909F908F900895D8
:10026000AF92BF92CF92DF92EF92FF920F931F93C4
:10027000CF93DF936C017B018B01040F151FEB0102
:100280005E01AE18BF08C017D10759F06991D601B9
:10029000ED91FC910190F081E02DC6010995892B2B
:1002A00079F7C501DF91CF911F910F91FF90EF90EA
:1002B000DF90CF90BF90AF900895FC01538D448D97
:1002C000252F30E0842F90E0821B930B541710F001
:1002D000CF96089501970895FC01918D828D98170E
:1002E00061F0A28DAE0FBF2FB11D5D968C91928DE6
:1002F0009F5F9F73928F90E008958FEF9FEF089517
:10030000FC01918D828D981731F0828DE80FF11DDF
:10031000858D90E008958FEF9FEF0895FC01918DFA
:10032000228D892F90E0805C9F4F821B91098F73F3
:100330009927089581E391E00E948E0121E0892BA5
:1003400009F420E0822F089580E090E0892B29F0C5
:100350000E949A0181110C9400000895FC01A48D63
:10036000A80FB92FB11DA35ABF4F2C91848D90E0D7
:1003700001968F739927848FA689B7892C93A089BA
:10038000B1898C91837080648C93938D848D981344
:1003900006C00288F389E02D80818F7D80830895D7
:1003A000EF92FF920F931F93CF93DF93EC0181E0C5
:1003B000888F9B8D8C8D98131AC0E889F98980816C
:1003C00085FF15C09FB7F894EE89FF896083E8899F
:1003D000F98980818370806480839FBF81E090E091
:1003E000DF91CF911F910F91FF90EF900895F62E1E
:1003F0000B8D10E00F5F1F4F0F731127E02E8C8DB8
:100400008E110CC00FB607FCFACFE889F9898081FC
:1004100085FFF5CFCE010E94AE01F1CFEB8DEC0F41
:10042000FD2FF11DE35AFF4FF0829FB7F8940B8F19
:10043000EA89FB8980818062CFCFCF93DF93EC0183
:10044000888D8823B9F0AA89BB89E889F9898C91BC
:1004500085FD03C0808186FD0DC00FB607FCF7CF78
:100460008C9185FFF2CF808185FFEDCFCE010E9478
:10047000AE01E9CFDF91CF910895FB0101900020FB
:10048000E9F73197AF01461B570BDC01ED91FC9169
:100490000280F381E02D09948F929F92AF92BF92D8
:1004A000EF92FF920F931F93CF93DF93CDB7DEB7F9
:1004B000A1970FB6F894DEBF0FBECDBF7C01FA0145
:1004C000CB0119A2223008F42AE08E010F5D1F4FE4
:1004D000822E912CB12CA12CBF01A50194010E9468
:1004E0006C05F901CA016A300CF5605DD8016E93A4
:1004F0008D01232B242B252B79F790E080E010979A
:1005000021F0BD01C7010E943D02A1960FB6F894EB
:10051000DEBF0FBECDBFDF91CF911F910F91FF9036
:10052000EF90BF90AF909F908F900895695CDECF61
:100530001F920F920FB60F9211242F933F938F9318
:100540009F93AF93BF938091290190912A01A0912D
:100550002B01B0912C013091280123E0230F2D377E
:1005600058F50196A11DB11D209328018093290102
:1005700090932A01A0932B01B0932C0180912D011F
:1005800090912E01A0912F01B09130010196A11DF3
:10059000B11D80932D0190932E01A0932F01B09354
:1005A0003001BF91AF919F918F913F912F910F900B
:1005B0000FBE0F901F90189526E8230F0296A11DDD
:1005C000B11DD2CF1F920F920FB60F9211242F930D
:1005D0003F934F935F936F937F938F939F93AF93CB
:1005E000BF93EF93FF9381E391E00E94AE01FF91EF
:1005F000EF91BF91AF919F918F917F916F915F919B
:100600004F913F912F910F900FBE0F901F90189513
:100610001F920F920FB60F9211242F938F939F93D7
:10062000EF93FF93E0914101F09142018081E091CD
:100630004701F091480182FD1BC0908180914A01E1
:100640008F5F8F7320914B01821741F0E0914A0137
:10065000F0E0EF5CFE4F958F80934A01FF91EF91A0
:100660009F918F912F910F900FBE0F901F90189513
:100670008081F4CFCF92DF92EF92FF920F931F937E
:10068000E82FF92F05C0015011092109310961F145
:10069000908196239417B9F305C0015011092109DF
:1006A000310911F1908196239413F7CFC12CD12CED
:1006B000E12CF12C0AC08FEFC81AD80AE80AF80A10
:1006C0000C151D052E053F0579F0808186238417C2
:1006D00091F36C2D7D2D8E2D9F2D1F910F91FF90ED
:1006E000EF90DF90CF90089560E070E080E090E0C0
:1006F0001F910F91FF90EF90DF90CF900895E1E36D
:10070000F1E01382128288EE93E0A0E0B0E08483EF
:100710009583A683B78384E091E09183808385EC01
:1007200090E09587848784EC90E09787868780ECBB
:1007300090E0918B808B81EC90E0938B828B82ECAC
:1007400090E0958B848B86EC90E0978B868B118E56
:10075000128E138E148EF093CF01E093CE01089584
:10076000789484B5826084BD84B5816084BD85B58C
:10077000826085BD85B5816085BD80916E00816098
:1007800080936E001092810080918100826080933E
:100790008100809181008160809381008091800040
:1007A0008160809380008091B10084608093B1006B
:1007B0008091B00081608093B00080917A00846065
:1007C00080937A0080917A00826080937A00809191
:1007D0007A00816080937A0080917A0080688093AB
:1007E0007A001092C100E0914101F091420182E053
:1007F0008083E0913D01F0913E011082E0913F0144
:10080000F09140018FEC808310924901E091450105
:10081000F091460186E08083E0914301F09144012C
:10082000808180618083E0914301F0914401808167
:1008300088608083E0914301F09144018081806869
:100840008083E0914301F091440180818F7D80831A
:100850008EE08093270188E080932601E8EAF0E0AB
:100860002491E4E9F0E08491882399F090E0880FE6
:10087000991FFC01E859FF4FA591B491FC01E45880
:10088000FF4F859194918FB7F894EC91E22BEC9304
:100890008FBF8091260190E0FC01E656FF4F249126
:1008A0008A579F4FFC0184918823C1F090E0880F04
:1008B000991FFC01E859FF4FC591D491FC01E45800
:1008C000FF4FA591B4919FB7F8948881E22FE095EE
:1008D0008E2388838C91E823EC939FBF93E0292E8D
:1008E000312C23E2A22EB12C30E0832E30E0932E67
:1008F00068EE73E080E090E00E94FD00C091270167
:1009000060E08C2F0E948C00C1010197F1F761E03B
:100910008C2F0E948C00C5010197F1F760E08C2FAD
:100920000E948C008091260190E0FC01E656FF4F6A
:100930006491FC01EA57FF4FE491F0E0EE0FFF1FD6
:10094000EE58FF4F8591949100E412E42FE030E0DF
:10095000462F0E943A03611571058105910529F022
:100960006F5F7F4F8F4F9F4F9F700E94350626E924
:1009700033E44BE85CE30E94EC066B017C01C09120
:10098000CE01D091CF01AC019B010E94590762E1D9
:1009900071E0811116C02FEF3FEF4FE75FE7C7010E
:1009A000B6010E94590781112BC02FEF3FEF4FE78F
:1009B0005FE7C701B6010E94010618160CF566E153
:1009C00071E0CE010E943D026EE171E08091CE01A6
:1009D0009091CF010E943D0262E271E08091CE01D0
:1009E0009091CF010E943D028114910409F480CFBF
:1009F0000E949A01882309F47BCF0E94000078CFDF
:100A00002FEF3FEF4FE75FE4C701B6010E94E70613
:100A100018161CF46AE171E0D4CF2FEF3FEF4FE7D7
:100A20005FECC701B6010E94010687FDF3CF2AE003
:100A300037ED43EA5BE3C701B6010E9495052B0140
:100A40003C010E9406066B017C010E9435069B0159
:100A5000AC01C301B2010E9494052B013C012AE0C4
:100A6000B701A601CE010E944C02E881F9810190F4
:100A7000F081E02D6EE2CE01099520E030E040E209
:100A800051E4C301B2010E94EC062B013C010E941B
:100A900006066B01F12CE12C2AE0B701A601CE017C
:100AA0000E944C02C701B6010E9435069B01AC01B1
:100AB000C301B2010E94940520E030E040E251E41D
:100AC0000E94EC060E940606AB0170E060E02AE09E
:100AD000CE010E944C0278CFA1E21A2EAA1BBB1BAA
:100AE000FD010DC0AA1FBB1FEE1FFF1FA217B307FA
:100AF000E407F50720F0A21BB30BE40BF50B661F10
:100B0000771F881F991F1A9469F7609570958095D3
:100B100090959B01AC01BD01CF010895EE0FFF1F21
:100B20000590F491E02D09945058BB27AA270E9404
:100B3000AC050C94AD060E949F0638F00E94A606F4
:100B400020F039F49F3F19F426F40C949C060EF41F
:100B5000E095E7FB0C949606E92F0E94BE0658F339
:100B6000BA17620773078407950720F079F4A6F592
:100B70000C94E0060EF4E0950B2EBA2FA02D0B017D
:100B8000B90190010C01CA01A0011124FF27591BD2
:100B900099F0593F50F4503E68F11A16F040A22FD8
:100BA000232F342F4427585FF3CF46953795279549
:100BB000A795F0405395C9F77EF41F16BA0B620B48
:100BC000730B840BBAF09150A1F0FF0FBB1F661F8F
:100BD000771F881FC2F70EC0BA0F621F731F841FD2
:100BE00048F4879577956795B795F7959E3F08F0F8
:100BF000B0CF9395880F08F09927EE0F97958795BA
:100C000008950E94720608F481E008950E94C606C5
:100C100088F09F5798F0B92F9927B751B0F0E1F0BD
:100C2000660F771F881F991F1AF0BA95C9F714C06D
:100C3000B13091F00E94E006B1E008950C94E00616
:100C4000672F782F8827B85F39F0B93FCCF38695A6
:100C500077956795B395D9F73EF490958095709503
:100C600061957F4F8F4F9F4F0895E89409C097FB80
:100C70003EF490958095709561957F4F8F4F9F4F73
:100C80009923A9F0F92F96E9BB279395F6958795B7
:100C900077956795B795F111F8CFFAF4BB0F11F47A
:100CA00060FF1BC06F5F7F4F8F4F9F4F16C0882321
:100CB00011F096E911C0772321F09EE8872F762F57
:100CC00005C0662371F096E8862F70E060E02AF098
:100CD0009A95660F771F881FDAF7880F9695879584
:100CE00097F90895990F0008550FAA0BE0E8FEEF59
:100CF00016161706E807F907C0F012161306E407E0
:100D0000F50798F0621B730B840B950B39F40A26D8
:100D100061F0232B242B252B21F408950A2609F4B6
:100D2000A140A6958FEF811D811D089597F99F67BA
:100D300080E870E060E008959FEF80EC0895002463
:100D40000A941616170618060906089500240A9430
:100D500012161306140605060895092E0394000CB6
:100D600011F4882352F0BB0F40F4BF2B11F460FF45
:100D700004C06F5F7F4F8F4F9F4F089557FD90586E
:100D8000440F551F59F05F3F71F04795880F97FB4F
:100D9000991F61F09F3F79F0879508951216130609
:100DA0001406551FF2CF4695F1DF08C01616170638
:100DB0001806991FF1CF869571056105089408956D
:100DC000E894BB2766277727CB0197F908950E94FF
:100DD000720608F48FEF08950E94FF060C94AD068A
:100DE0000E949F0638F00E94A60620F0952311F07D
:100DF0000C9496060C949C0611240C94E1060E9417
:100E0000BE0670F3959FC1F3950F50E0551F629F8A
:100E1000F001729FBB27F00DB11D639FAA27F00D53
:100E2000B11DAA1F649F6627B00DA11D661F829F7A
:100E30002227B00DA11D621F739FB00DA11D621F5F
:100E4000839FA00D611D221F749F3327A00D611D7C
:100E5000231F849F600D211D822F762F6A2F11245E
:100E60009F5750409AF0F1F088234AF0EE0FFF1F91
:100E7000BB1F661F771F881F91505040A9F79E3FE8
:100E8000510580F00C9496060C94E1065F3FE4F364
:100E9000983ED4F3869577956795B795F795E7953E
:100EA0009F5FC1F7FE2B880F911D9695879597F947
:100EB00008950E947206880B990B0895F894FFCF4D
:100EC00000000000D00130015D011D028E016C01A7
:100ED00080016E616E00696E66006F766600206349
:060EE0006D000D0A000088
:00000001FF
