:100000000C9462000C948A000C948A000C948A0070
:100010000C948A000C948A000C948A000C948A0038
:100020000C948A000C948A000C948A000C948C0323
:100030000C948A000C948A000C948A000C948A0018
:100040000C94EA020C948A000C945A030C94340326
:100050000C948A000C948A000C948A000C948A00F8
:100060000C948A000C948A000000000023002600F3
:10007000290000000000240027002A0000000000E2
:10008000250028002B0004040404040404040202D4
:100090000202020203030303030301020408102007
:1000A0004080010204081020010204081020000012
:1000B0000008000201000003040700000000000027
:1000C00000008D0411241FBECFEFD8E0DEBFCDBFEE
:1000D00011E0A0E0B1E0E0E8F0E102C005900D928F
:1000E000A231B107D9F721E0A2E1B1E001C01D9230
:1000F000A53EB207E1F710E0C2E6D0E004C02197C8
:10010000FE010E941407C136D107C9F70E94F90405
:100110000C943E080C940000CF92DF92EF92FF9275
:10012000DC01A03282E0B807D4F5A53BB10514F09C
:10013000A4EBB0E04091440128E830E0241B3109F1
:1001400047FD3395220F331F220F331F6901330FF1
:10015000EE08FF084091450128E532E0241B3109F3
:1001600047FD3395220F331F220F331F032E000C40
:10017000440B550B2C193D094E095F09B7FF02C00E
:10018000B0E0A0E00E94A70624EB30E040E050E0A1
:100190000E947D06C20ED31EE41EF51ED601E0911C
:1001A0004301EC3080F52091440188E890E0821B07
:1001B000910927FD9395880F991F880F991FA817FC
:1001C000B90784F02091450188E592E0821B9109EE
:1001D00027FD9395880F991F880F991FA817B907B6
:1001E0000CF4CD010297880F991F4FB7F8942E2F6A
:1001F00030E0F901EE0FFF1FE20FF31FE25EFE4F4A
:10020000928381834FBFFF90EF90DF90CF9008954E
:1002100090E0FC01E255FF4F2491FC01E656FF4FB0
:100220003491FC01EA57FF4FE491EE23C9F02223F9
:1002300039F0233001F1A8F4213019F1223029F1ED
:10024000F0E0EE0FFF1FE458FF4FA591B4918FB778
:10025000F894EC91611126C030953E233C938FBFFA
:1002600008952730A9F02830C9F0243049F780914B
:1002700080008F7D03C0809180008F778093800005
:10028000DFCF84B58F7784BDDBCF84B58F7DFBCF87
:100290008091B0008F778093B000D2CF8091B00072
:1002A0008F7DF9CF3E2BDACFCF93DF9390E0FC0127
:1002B000E656FF4F24918A579F4FFC018491882373
:1002C000D1F090E0880F991FFC01EE58FF4FA591E7
:1002D000B491FC01E458FF4FC591D49161110EC057
:1002E0009FB7F8948C91E22FE0958E238C93288110
:1002F000E223E8839FBFDF91CF9108958FB7F894F1
:10030000EC91E22BEC938FBFF6CF3FB7F89480913E
:100310001A0190911B01A0911C01B0911D0126B5FD
:10032000A89B05C02F3F19F00196A11DB11D3FBF2D
:10033000BA2FA92F982F8827BC01CD01620F711DFC
:10034000811D911D42E0660F771F881F991F4A95F6
:10035000D1F708958F929F92AF92BF92CF92DF9282
:10036000EF92FF926B017C010E9485014B015C01C1
:10037000C114D104E104F104B9F00E9485016819A7
:1003800079098A099B09683E73408105910580F3CC
:1003900021E0C21AD108E108F10888EE880E83E056
:1003A000981EA11CB11CE4CFFF90EF90DF90CF907E
:1003B000BF90AF909F908F900895AF92BF92CF92D1
:1003C000DF92EF92FF920F931F93CF93DF936C0115
:1003D0007B018B01040F151FEB015E01AE18BF08F6
:1003E000C017D10759F06991D601ED91FC910190A8
:1003F000F081E02DC6010995892B79F7C501DF91C0
:10040000CF911F910F91FF90EF90DF90CF90BF9011
:10041000AF900895FC01538D448D252F30E0842F3B
:1004200090E0821B930B541710F0CF96089501971C
:100430000895FC01918D828D981761F0A28DAE0F09
:10044000BF2FB11D5D968C91928D9F5F9F73928F90
:1004500090E008958FEF9FEF0895FC01918D828DBC
:10046000981731F0828DE80FF11D858D90E0089589
:100470008FEF9FEF0895FC01918D228D892F90E0E1
:10048000805C9F4F821B91098F739927089588E4A0
:1004900091E00E943B0221E0892B09F420E0822FA9
:1004A000089580E090E0892B29F00E944702811195
:1004B0000C9400000895FC01A48DA80FB92FB11D64
:1004C000A35ABF4F2C91848D90E001968F7399278A
:1004D000848FA689B7892C93A089B1898C91837068
:1004E00080648C93938D848D981306C00288F38961
:1004F000E02D80818F7D80830895EF92FF920F938E
:100500001F93CF93DF93EC0181E0888F9B8D8C8DBF
:1005100098131AC0E889F989808185FF15C09FB7B3
:10052000F894EE89FF896083E889F9898081837076
:10053000806480839FBF81E090E0DF91CF911F9125
:100540000F91FF90EF900895F62E0B8D10E00F5F46
:100550001F4F0F731127E02E8C8D8E110CC00FB61C
:1005600007FCFACFE889F989808185FFF5CFCE01B4
:100570000E945B02F1CFEB8DEC0FFD2FF11DE35AD2
:10058000FF4FF0829FB7F8940B8FEA89FB89808137
:100590008062CFCFCF93DF93EC01888D8823B9F0B1
:1005A000AA89BB89E889F9898C9185FD03C080817E
:1005B00086FD0DC00FB607FCF7CF8C9185FFF2CFFB
:1005C000808185FFEDCFCE010E945B02E9CFDF91F4
:1005D000CF9108951F920F920FB60F9211242F936F
:1005E0003F938F939F93AF93BF9380911601909108
:1005F0001701A0911801B09119013091150123E064
:10060000230F2D3758F50196A11DB11D209315011B
:100610008093160190931701A0931801B0931901CC
:1006200080911A0190911B01A0911C01B0911D01B4
:100630000196A11DB11D80931A0190931B01A093F7
:100640001C01B0931D01BF91AF919F918F913F917C
:100650002F910F900FBE0F901F90189526E8230F33
:100660000296A11DB11DD2CF1F920F920FB60F920D
:1006700011242F933F934F935F936F937F938F93A7
:100680009F93AF93BF93EF93FF9388E491E00E9411
:100690005B02FF91EF91BF91AF919F918F917F91FD
:1006A0006F915F914F913F912F910F900FBE0F90DF
:1006B0001F9018951F920F920FB60F9211242F932F
:1006C0008F939F93EF93FF93E0915801F09159011D
:1006D0008081E0915E01F0915F0182FD1BC09081FD
:1006E000809161018F5F8F7320916201821741F0C9
:1006F000E0916101F0E0E85BFE4F958F809361012E
:10070000FF91EF919F918F912F910F900FBE0F90BE
:100710001F9018958081F4CF1F920F920FB60F9201
:1007200011242F933F934F935F936F937F938F93F6
:100730009F93AF93BF93CF93DF93EF93FF938091FA
:100740001201C0914201D0E087FF24C010928500C1
:1007500010928400809112018F5F8093120180912A
:100760001201082E000C990B8C179D0724F4809120
:1007700012018C30C4F18091840090918500049620
:1007800080349C4908F47AC080918400909185005F
:10079000049676C080911201082E000C990B8C17DC
:1007A0009D07C4F6E09112018E2FEE0F990BFC010C
:1007B000EE0FFF1FE80FF91FE25EFE4F808186FFFC
:1007C000C9CFE09112018E2FEE0F990BFC01EE0FB5
:1007D000FF1FE80FF91FE25EFE4F808160E08F731C
:1007E0000E940801B7CF2091840030918500E091EC
:1007F00012018E2FEE0F990BFC01EE0FFF1FE80F79
:10080000F91FE25EFE4F81819281820F931F9093C8
:10081000890080938800E09112018E2FEE0F990BD2
:10082000FC01EE0FFF1FE80FF91FE25EFE4F808113
:1008300086FF11C0E09112018E2FEE0F990BFC0183
:10084000EE0FFF1FE80FF91FE25EFE4F808161E0AF
:100850008F730E940801FF91EF91DF91CF91BF91BB
:10086000AF919F918F917F916F915F914F913F9148
:100870002F910F900FBE0F901F90189580E49CE968
:1008800090938900809388008FEF80931201E3CFCB
:10089000CF92DF92EF92FF920F931F93E82FF92FE1
:1008A00005C0015011092109310961F19081962398
:1008B0009417B9F305C0015011092109310911F14B
:1008C000908196239413F7CFC12CD12CE12CF12CDD
:1008D0000AC08FEFC81AD80AE80AF80A0C151D05D5
:1008E0002E053F0579F080818623841791F36C2DC6
:1008F0007D2D8E2D9F2D1F910F91FF90EF90DF90FA
:10090000CF90089560E070E080E090E01F910F913B
:10091000FF90EF90DF90CF90089510924B011092CE
:100920004A0188EE93E0A0E0B0E080934C01909300
:100930004D01A0934E01B0934F0184E091E090935C
:1009400049018093480185EC90E090935501809394
:10095000540184EC90E0909357018093560180EC11
:1009600090E0909359018093580181EC90E090932E
:100970005B0180935A0182EC90E090935D0180933B
:100980005C0186EC90E090935F0180935E01109291
:1009900061011092620110926301109264018EE075
:1009A0008093460188E08093470161E08EE00E94D9
:1009B000540160E0809147010E94540180914201FE
:1009C0008C3098F491E0980F90934201809343010A
:1009D00090E0FC01EE0FFF1FE80FF91FE25EFE4FF3
:1009E00088EB9BE09283818308958FEF809343018E
:1009F0000895789484B5826084BD84B5816084BD97
:100A000085B5826085BD85B5816085BD80916E00AC
:100A1000816080936E0010928100809181008260DD
:100A2000809381008091810081608093810080911A
:100A300080008160809380008091B1008460809309
:100A4000B1008091B00081608093B00080917A0005
:100A5000846080937A0080917A00826080937A002B
:100A600080917A00816080937A0080917A0080681A
:100A700080937A001092C100E0915801F0915901E1
:100A800082E08083E0915401F09155011082E09161
:100A90005601F09157018FEC808310926001E09134
:100AA0005C01F0915D0186E08083E0915A01F09154
:100AB0005B01808180618083E0915A01F0915B014C
:100AC000808188608083E0915A01F0915B01808190
:100AD00080688083E0915A01F0915B0180818F7D75
:100AE0008083809143018C3008F051C061E089E03F
:100AF0000E94540180914301282F30E0F901EE0F4C
:100B0000FF1FE20FF31FE25EFE4F9081907C996021
:100B1000908310924401109245012CE0622F0E94B4
:100B2000E006829FB001112430E020E0AB01420FCB
:100B3000531FFA01EE0FFF1FE40FF51FE25EFE4F99
:100B4000908196FD16C02F5F3F4F2C30310571F715
:100B500081110FC01092800082E08093810010927A
:100B6000850010928400B19A80916F00826080931A
:100B70006F00E09143018E2F90E0FC01EE0FFF1F0C
:100B8000E80FF91FE25EFE4F80818064808390E071
:100B900080E00E948C0061E085E00E94540161E0E9
:100BA00084E00E94540161E085E00E94080161E058
:100BB00084E00E94080168EB7BE080E090E00E9406
:100BC000AA0193E0692E712CC3E2D0E026E0522EF8
:100BD0003AE7C32EDD24D3944DEBA42EB12C50E084
:100BE000E52E50E0F52E88248394912C6CE271E080
:100BF00080E090E00E94AA0160E0809146010E949E
:100C00000801C3010197F1F761E0809146010E945C
:100C10000801CE010197F1F760E0809146010E9442
:100C200008018091470190E0FC01E656FF4F649176
:100C3000FC01EA57FF4FE491F0E0EE0FFF1FE85987
:100C4000FF4F8591949100E412E42FE030E0462FAD
:100C50000E944804611571058105910529F06F5FB7
:100C60007F4F8F4F9F4F9F700E941F0726E933E4ED
:100C70004BE85CE30E94800720E030E040EA50E46B
:100C80000E941A07181644F18091130190911401E3
:100C9000883621E0920764F50196909314018093C1
:100CA00013012091130130911401529EC001539EF3
:100CB000900D1124B6010E94EC0697FF02C08658E1
:100CC0009E4F8E3B910534F08D5B91099501281B59
:100CD000390BC9010E948C00E114F10409F486CF9C
:100CE0000E944702882309F481CF0E9400007ECF32
:100CF0009092140180921301D4CF052E97FB1EF41D
:100D000000940E94940657FD07D00E94AF0607FC8E
:100D100003D04EF40C94940650954095309521954F
:100D20003F4F4F4F5F4F0895909580957095619517
:100D30007F4F8F4F9F4F08950E94D106A59F900D22
:100D4000B49F900DA49F800D911D11240895B7FFAD
:100D50000C949C060E949C06821B930B0895A1E2B2
:100D60001A2EAA1BBB1BFD010DC0AA1FBB1FEE1F25
:100D7000FF1FA217B307E407F50720F0A21BB30B70
:100D8000E40BF50B661F771F881F991F1A9469F7EC
:100D900060957095809590959B01AC01BD01CF0148
:100DA0000895A29FB001B39FC001A39F700D811D44
:100DB0001124911DB29F700D811D1124911D089564
:100DC000991B79E004C0991F961708F0961B881F9D
:100DD0007A95C9F78095089597FB072E16F400942D
:100DE00007D077FD09D00E94000707FC05D03EF42C
:100DF000909581959F4F0895709561957F4F0895C7
:100E0000AA1BBB1B51E107C0AA1FBB1FA617B70730
:100E100010F0A61BB70B881F991F5A95A9F780954C
:100E20009095BC01CD010895EE0FFF1F0590F49140
:100E3000E02D09940E945C0708F481E00895E8948D
:100E400009C097FB3EF490958095709561957F4F12
:100E50008F4F9F4F9923A9F0F92F96E9BB279395C0
:100E6000F695879577956795B795F111F8CFFAF4D0
:100E7000BB0F11F460FF1BC06F5F7F4F8F4F9F4F01
:100E800016C0882311F096E911C0772321F09EE85F
:100E9000872F762F05C0662371F096E8862F70E0C5
:100EA00060E02AF09A95660F771F881FDAF7880F9F
:100EB0009695879597F90895990F0008550FAA0BF5
:100EC000E0E8FEEF16161706E807F907C0F012165D
:100ED0001306E407F50798F0621B730B840B950B60
:100EE00039F40A2661F0232B242B252B21F40895B5
:100EF0000A2609F4A140A6958FEF811D811D089552
:100F00000E9493070C9404080E94F60738F00E9490
:100F1000FD0720F0952311F00C94ED070C94F307D6
:100F200011240C9438080E94150870F3959FC1F3A2
:100F3000950F50E0551F629FF001729FBB27F00D87
:100F4000B11D639FAA27F00DB11DAA1F649F6627DC
:100F5000B00DA11D661F829F2227B00DA11D621F2B
:100F6000739FB00DA11D621F839FA00D611D221FE5
:100F7000749F3327A00D611D231F849F600D211DC9
:100F8000822F762F6A2F11249F5750409AF0F1F04C
:100F900088234AF0EE0FFF1FBB1F661F771F881FB5
:100FA00091505040A9F79E3F510580F00C94ED07F9
:100FB0000C9438085F3FE4F3983ED4F38695779518
:100FC0006795B795F795E7959F5FC1F7FE2B880F5B
:100FD000911D9695879597F9089597F99F6780E8F1
:100FE00070E060E008959FEF80EC089500240A947B
:100FF0001616170618060906089500240A941216F4
:101000001306140605060895092E0394000C11F426
:10101000882352F0BB0F40F4BF2B11F460FF04C0D3
:101020006F5F7F4F8F4F9F4F089557FD9058440F2C
:10103000551F59F05F3F71F04795880F97FB991F37
:1010400061F09F3F79F087950895121613061406F4
:10105000551FF2CF4695F1DF08C016161706180681
:10106000991FF1CF86957105610508940895E8945C
:10107000BB2766277727CB0197F90895F894FFCF10
:10108000000000007D02DD010A02CA023B021902D3
:021090002D022F
:00000001FF
